:100000000C94E7020C9404030C9404030C94040372
:100010000C9404030C9404030C9404030C94040344
:100020000C9404030C9404030C942A1D0C94E61CF9
:100030000C94271E0C9404030C9404030C940403E6
:100040000C9404030C9404030C9404030C94040314
:100050000C9404030C94031E0C9404030C940403EA
:100060000C9404030C9404030C9404030C940403F4
:100070000C9404030C9404030C9404030C940403E4
:100080000C9404030C9404030C9404030C940403D4
:100090000C9404030C9404030C9404030C940403C4
:1000A0000C9404030C9404030C94040305010980CC
:1000B000A101850319012AB700150126B700950192
:1000C00075108100C0050C0901A101850419012AE0
:1000D000A002150126A002950175108100C00660DE
:1000E000FF0961A1010962150026FF00952075082E
:1000F00081020963150026FF00952075089102C052
:1001000005010906A101050719E029E715002501E8
:10011000950875018102950175088101050719008F
:1001200029FF150026FF00950675088100050819AE
:10013000012905950575019102950175039101C08D
:1001400000000000000000000000000000000000AF
:10015000000000000000000000000000000000009F
:10016000000000007E0F00D4FFFFFFC700000078F2
:1001700000000000000000002A2B28000000000002
:100180000000000000000000000000290000000046
:100190002C1E3420212224342627252E362D3738B4
:1001A000271E1F202122232425263333362E3738BD
:1001B0001F0405060708090A0B0C0D0E0F1011127B
:1001C000131415161718191A1B1C1D2F3130232D47
:1001D000350405060708090A0B0C0D0E0F10111245
:1001E000131415161718191A1B1C1D2F3130354CF6
:1001F0001E0F0500047F3F1F643214643214783CE4
:100200001E1E140A05000101010101010101010284
:1002100002020202020202020303030303030303B6
:100220000404040404040405050505050606060681
:1002300006070707070708080808090909090A0A3D
:100240000A0B0B0B0C0C0C0D0D0D0E0E0E0F0F0FE1
:10025000101011111112121313141415151616176C
:1002600017181819191A1A1B1B1C1D1D1E1E1F20DA
:1002700020212222232424252626272829292A2B27
:100280002C2D2D2E2F30313232333435363738394C
:100290003A3B3C3D3E3F4041424344454647484946
:1002A0004A4C4D4E4F50515354555658595A5B5D18
:1002B0005E5F616264656668696B6C6D6F707273B6
:1002C0007577787A7B7D7E8082838587888A8C8E1D
:1002D0008F91939596989A9C9EA0A2A3A5A7A9AB4F
:1002E000ADAFB1B3B5B7BABCBEC0C2C4C6C9CBCD41
:1002F000CFD1D4D6D8DBDDDFE2E4E7E9EBEEF0F3F3
:10030000F5F8FAFDFFFFAA7F55402223252628296C
:100310002A2C2D2F3032333536383A3B3D3E404281
:10032000434547494A4C4E5051535557595A5C5EC4
:100330006062646668696B6D6F71737577797B7DD8
:100340007F81838587898A8C8E90929496989A9CD7
:100350009E9FA1A3A5A7A8AAACAEAFB1B3B4B6B8EF
:10036000B9BBBCBEBFC1C2C3C5C6C7C9CACBCCCD51
:10037000CED0D1D2D2D3D4D5D6D7D7D8D9D9DADA2C
:10038000DBDBDBDCDCDCDCDCDDDDDDDDDCDCDCDCAC
:10039000DCDBDBDBDADAD9D9D8D7D7D6D5D4D3D2E0
:1003A000D2D1D0CECDCCCBCAC9C7C6C5C3C2C1BFBE
:1003B000BEBCBBB9B8B6B4B3B1AFAEACAAA8A7A522
:1003C000A3A19F9E9C9A98969492908E8C8A8987DE
:1003D0008583817F7D7B79777573716F6D6B6968BC
:1003E000666462605E5C5A5957555351504E4C4A90
:1003F0004947454342403E3D3B3A3836353332303B
:100400002F2D2C2A29282625232229001F002100F0
:100410002300250027002E004C001E002000220093
:10042000240026002D002A0000002B001A001500D1
:100430001C000C001300300000001400080017001E
:10044000180012002F002152310039001600090057
:100450000B000E00330032004B00040007000A00BE
:100460000D000F00340028003500E1001D000600DB
:10047000050010003700E5004E0064001B00190065
:1004800011003600380052004F00E000E300E200A7
:100490002C00E600E4005000510035003B003D0018
:1004A0003F00410043004500A7003A003C003E00E9
:1004B0004000420044000100000020782C782E7893
:1004C000307832780100010000002B782D782F78E9
:1004D000317833780100010001000100227824788E
:1004E0002678287801000100A60021782378257855
:1004F0002778010001000100A500E10001000100D2
:1005000001000100010001000100010001000100E3
:10051000010001000100A900AE00E000E300E200DC
:100520002078E600E400A800AA0009025B000301AD
:1005300000A0FA09040000010301010009211101D2
:1005400000012240000705810308000109040100A1
:100550000203000000092111010001222200070509
:1005600082032000010705030320000109040200A3
:1005700001030000000921110100012232000705DA
:1005800084032000011201000200000008474D030F
:10059000000001010200011C034D006900670075A5
:1005A0000065006C0069006F00200052006F00635E
:1005B000006B00000012034D0069006700750065C4
:1005C000006C0069006F000000040309040011249E
:1005D0001FBECFEFDAE0DEBFCDBF22E0A6EAB1E07A
:1005E00001C01D92A43FB207E1F711E0A0E0B1E025
:1005F000E4EDFBE402C005900D92A63AB107D9F7ED
:100600000E944E1E0C9481250C940000E8EDF0E051
:1006100080818E7F80831092E2001092DA00109227
:10062000E100A0EEB0E08C9181608C9380818F77A7
:10063000808319BCA7EDB0E08C918E7F8C93808174
:100640008F7E80831092D20208952091E400309131
:10065000E50095E6A9012091EC00822F817020FF32
:1006600006C08091E80080FF06C080E008952091D8
:10067000E80022FD1AC08091DF02882389F08530CE
:1006800089F08091EB0085FD0FC02091E40030914E
:10069000E50042175307F9F29150E1F684E008951E
:1006A00082E0089583E0089581E008958091E10259
:1006B00087FF13C08091E80082FF06C08091E800A8
:1006C0008B778093E80004C08091DF028111F2CF24
:1006D00008958091DF028823D9F38091E80080FF9C
:1006E000F8CF8091E8008E77ECCF982F9093E900B7
:1006F000242F762F50E0891731F07091EC00209173
:10070000ED005091F00021FD07C09F5F973071F719
:100710008093E90081E008953091EB003E7F3093B3
:10072000EB003091ED003D7F3093ED003091EB0018
:1007300031603093EB007093EC002093ED00509308
:10074000F0002091EE0027FDE0CF80E00895B0E0BA
:10075000A0E0EDEAF3E00C940823C8EDD0E0888136
:100760008F7E8883E7EDF0E080818160808384E084
:1007700082BF81E08093D20288818E7F888302EEDF
:1007800010E0F80110821092DA0081EEC82ED12C10
:10079000F601108288818F778883888180688883BA
:1007A00088818F7D888319BC1092DF021092E0024D
:1007B0001092DE021092DD0290EEE92EF12CF7018C
:1007C00080818B7F808388818160888342E060E0C4
:1007D00080E00E947503F60180818E7F8083F8019E
:1007E000808181608083808188608083F70180813F
:1007F0008E7F8083888180618883CDB7DEB7E8E013
:100800000C942423FC018091E7029091E802861762
:100810009707A0F06115710529F49091E8009E7783
:100820009093E80090E06115710551F4911108C0B2
:100830008091E80082FF34C080E00895BC01F2CFCF
:100840008091DF028823C1F18530C1F18091E800F9
:1008500083FD30C08091E80082FDEACF8091E800FE
:1008600080FFE1CF8091F3002091F200382F6115D5
:10087000710519F02830310558F091E02830310524
:1008800009F090E02091E8002E772093E800CBCF8C
:1008900081918093F100615071092F5F3F4FE7CF45
:1008A0008091DF02882341F0853041F08091E8009B
:1008B00083FFBECF81E0089582E0089583E008952C
:1008C000089508958091D402089587E797E790935B
:1008D00001088093000888E19AE00FB6F894A89583
:1008E000809360000FBE90936000FFCF2FB7F89405
:1008F0008091E9029091EA02A091EB02B091EC02A2
:100900002FBF08959C01FC0132969FEF80E041913A
:10091000461751F09F3F19F4411101C0982F8F5F86
:100920008630A9F79F3F09F40895290F311D97FDDF
:100930003A95F90162830895A3E0B0E0E2EAF4E0B9
:100940000C940E232091CF023091D0022817390742
:10095000A1F09093D0028093CF02E091CD02F0916C
:10096000CE02309751F024E029839B838A8306804E
:10097000F781E02DCE01019609952396E2E00C94D3
:100980002A23A3E0B0E0E7ECF4E00C940E232091DE
:10099000CB023091CC0228173907A1F09093CC02FA
:1009A0008093CB02E091CD02F091CE02309751F0CE
:1009B00023E029839B838A830680F781E02DCE0183
:1009C000019609952396E2E00C942A23E091CD024A
:1009D000F091CE02309729F00190F081E02D099539
:1009E000089580E00895FA01811101C0FB01099585
:1009F00008958091C602982F9E7F29F481708260AD
:100A00008093C60208958635E8F381708465F8CF37
:100A1000AF92BF92DF92EF92FF920F931F93CF930B
:100A2000DF93082F162FE901E42FF0E0EB5FFD4F75
:100A3000611110C0E4915E2F4E2F4983E8835A83E1
:100A4000DF91CF911F910F91FF90EF90DF90BF90BA
:100A5000AF900895E62EF12C4491D42EE42FF0E0CF
:100A600026E0829FC00111242FEF30E0B9010E94DF
:100A7000BA22802F90E0880F991F55E5569FD0012C
:100A8000579FB00D11248A1B9B0B982F990F890F2C
:100A90005901AE18BF08AE9ED001AF9EB00DBE9EEC
:100AA000B00D11245B2F189F80011124012F1127F5
:100AB0005901A01AB10AAE9E8001AF9E100DBE9ED4
:100AC000100D11245901A81AB108AE9CC001AF9CA9
:100AD000900DBE9C900D1124892F9927281B390B4E
:100AE0002E9FC0012F9F900D3E9F900D1124E92F46
:100AF00062307105A1F050F46115710509F49DCFC4
:100B00006130710581F0EB2F512F97CF6430710563
:100B100069F080F06630710509F48FCFF4CFE42FCF
:100B20004B2F592F8ACFE42F412F87CFEB2F542FF4
:100B3000492F83CF4B2F5D2DE12F7FCF80E008958C
:100B4000F894E82FE295EF70F0E031A1282F2F7094
:100B500081E090E001C0880F2A95EAF7982F9095E0
:100B6000932391A392A1892B82A3789408959091C5
:100B7000240292FF06C0282F28712830F9F4877FBD
:100B8000846093FF06C0282F28712831F1F4877EF6
:100B900084612091250220FF06C0382F387138303B
:100BA000D9F4877F816021FF06C0282F2871283162
:100BB000D1F4877E816194FD877E0895282F24716A
:100BC0002430F9F68B7F8860DCCF282F2471243104
:100BD00001F78B7E8861DDCF382F3171313019F705
:100BE0008E7F8860E0CF282F2171213121F78E7E02
:100BF0008861E1CF82389105B9F1B0F48133910574
:100C000009F47DC048F48932910509F46DC08A3237
:100C1000910509F47BC008958533910509F45FC0FF
:100C20008933910509F10895833E9105D9F138F48E
:100C3000803E910529F1823E910579F10895863E25
:100C40009105D9F1873E910509F43EC0843E910596
:100C500041F52091250221FF24C08091240284FDCA
:100C600019C087EE90E0089520912402237009F0C6
:100C70005AC02091250223FF14C089E290E0089514
:100C80002091240220FD38C03091250230FF09C098
:100C900024FF43C090E080E008952091240222FDCB
:100CA000F7CF08952091240222FD3AC03091250209
:100CB00030FD39C024FFF5CFEDCF2091240223FF72
:100CC000F0CF24FDE7CFCDCF2091240223FD2EC00D
:100CD0003091250231FFEECF84EE90E0089520910F
:100CE000240225FFDECFC9CF2091240225FD21C09B
:100CF0002091250223FFD5CF89E390E0D2CF209128
:100D0000240226FFCECF8AE290E0089520912402AB
:100D100026FFC7CF81E390E0089583EE90E0089529
:100D200082EE90E0089580EE90E0089586EE90E0E7
:100D3000089585E390E008951F93CF93DF930E9479
:100D4000FA05EC01C11580E5D807F0F5C11580E47E
:100D5000D80708F09CC0C03ED10520F5CD3CD10598
:100D600008F082C0C83AD10578F4C53AD10508F038
:100D700073C0C130D10519F1209709F1C430D105F4
:100D8000F0F4D0E0C0E01BC0C33CD105D0F7C85A96
:100D9000D0E0CC0FDD1FCC5DDE4F0990D881C02D97
:100DA000D4640DC0C11580E2D80708F0D1C0C115C8
:100DB00081E0D80708F05AC0C83ED10510F7CE012F
:100DC000DF91CF911F910895C03682E5D80718F5BD
:100DD000C03482E5D80708F06BC0C03282E5D8077E
:100DE00008F05FC0C11582E5D80708F497C02C2F22
:100DF0002695269580E2289F900111248C2F8370E0
:100E0000C1E0D0E002C0CC0FDD1F8A95E2F7C22B13
:100E1000D32BDD68D4CFC03A82E5D80760F4C03860
:100E200082E5D80708F459C0CF71D0E0DC2FCC2779
:100E3000C46FD06AC4CFC03C82E5D80708F462C052
:100E4000C03E82E5D80708F09CCFDC2FCC27CC270A
:100E5000DF71C06FD06AB3CFC55AD0E0CF5DDE4F2F
:100E6000C881D0E0D064ABCFD065A9CF8D2F0E94D0
:100E7000B705182FCE0199270E94FA05C12FD0E09F
:100E8000DC2FCC27CC27DF71C82BD92B98CFCE01F4
:100E900099270E94FA05CC27DF70C82BD92BD06A7E
:100EA0008ECFCF71D0E0DC2FCC27C16FD06A87CF37
:100EB0002C2F26952695277080E2289F90011124DB
:100EC0008C2F8370C1E0D0E002C0CC0FDD1F8A956B
:100ED000E2F7C22BD32BDC6872CF2C2F26952695F8
:100EE000277080E2289F900111248C2F8370C1E02D
:100EF000D0E002C0CC0FDD1F8A95E2F7C22BD32BC6
:100F0000DA685DCF8C2F8F710E94B705C82FD0E0B3
:100F1000DC2FCC27CC27DF71D06251CF8C2F8F7183
:100F20000E94B70555E0D695C7955A95E1F7CF7061
:100F3000D0E0DC2FCC27282F30E084FF05C044E030
:100F4000220F331F4A95E1F7C22BD32BD06937CF3D
:100F50008D2F8F710E94B705182FCE0199270E94FF
:100F6000FA05C12FD0E0DC2FCC27CC27DF71C82BAE
:100F7000D92BD2CF80910F02811110920F020895C8
:100F8000809590910E02982390930E0208952091DF
:100F900003029091D20156E0291302C080E0089527
:100FA00030E0529FF001539FF00D1124ED52FE4F9F
:100FB0007181761306C07081781303C07281741337
:100FC00004C02F5F3F4F2770E7CF81E008958091E5
:100FD00003029091D201981301C008958F5F87702A
:100FE000FACF993080F5883070F548E0949F9001F1
:100FF0001124820F932F911D682F677023E096951F
:1010000087952A95E1F7FC01EE0FFF1FE80FF91F06
:10101000EF54FE4F50E040E080E0219130E0062E9A
:1010200002C0369527950A94E2F721703327042EE3
:1010300001C0220F0A94EAF7822B4F5F5F4F4330C3
:10104000510559F7089580E00895993098F5883052
:1010500088F548E0949F90011124820F932F911DF1
:10106000282F277041E001C0440F2A95EAF723E0BA
:10107000969587952A95E1F7FC01EE0FFF1FE80F83
:10108000F91FEF54FE4F90E080E070E05191DF01D6
:1010900011979B01082E02C0369527950A94E2F716
:1010A000217021952527242325272C930196833011
:1010B000910561F70895809323020895909123028A
:1010C00021E030E0F90101C0EE0F8A95EAF7D9017D
:1010D00002C0AA0FBB1F6A95E2F7EA2B01C0220FDC
:1010E0004A95EAF7892F8E23E81305C0292B822F12
:1010F0000E945B08089520952923F9CF21E030E074
:1011000001C0220F8A95EAF720958091230282235D
:101110000E945B0808959091040280958923809332
:101120000402282F277091F4282F082E000C330B6F
:101130009217130659F09091250292FF07C08595EA
:10114000859585950E947E0810920402089521E0FD
:1011500030E001C0220F8A95EAF780912302822BAA
:101160000E945B0808958093100208950F931F93C7
:10117000CF93DF938B01EA019091DF02943061F508
:101180008093E9008FEF9091E800815095FD06C0B3
:1011900095ED9A95F1F700008111F5CF8091E80067
:1011A00085FF1AC00E942503811111C08091E800BB
:1011B00085FD06C08091E8008E778093E800F2CF2D
:1011C000F80181918F018093F100219779F7809147
:1011D000E8008E778093E800DF91CF911F910F9107
:1011E000089543E050E0BC0184E00E94B6080895F1
:1011F000CF93DF93EC0148E050E0BC0181E00E9416
:10120000B60888E0FE01A5EDB2E001900D928A9546
:10121000E1F7DF91CF9108958091C60280FD0AC069
:10122000E6E4F2E0118210821282339652E0E63751
:10123000F507C1F7509A3BB13E7F2BB121604FB704
:10124000F89486E492E0FC015191CF0168E02BB95B
:10125000000000C057FF3BB9550F000000C000C0A0
:1012600000C03BB900C06A9591F7F2E086379F074E
:1012700051F74FBF8FE594E00197F1F700C00000F0
:101280000895EF92FF920F931F93CF93DF938C01FA
:10129000C6E4D2E0F12CE12CF80194816091C802FF
:1012A0008091C702F8E0EF16F104ECF49923E9F01D
:1012B0009E014091C9020E9408052FEFE21AF20A2E
:1012C000239680E1E816F10439F70E940C09F80131
:1012D000848190E00196817099278483CDB7DEB731
:1012E000E6E00C942623992319F39E0140E0E3CF16
:1012F000B0E0A0E0EEE7F9E00C940423EC014C81AF
:10130000042F10E09801D8010E9472259B01AC01C6
:101310000E943D254B015C01E0E2F0E0E01BF10B97
:10132000A5E5B0E0AC019B010E943D256B017C016D
:101330009F01DF010E94EF229B01AC010E94482522
:101340009B01AC01280D391D4A1D5B1DC701B6016B
:101350000E945025F22E822F90E039E23F1598F13D
:1013600043E0249F9001112435952795122F109565
:1013700096E4C92E92E0D92E00E085E5E82EEF181C
:101380008E2D01FD8F2D9601412F6091C8020E9484
:1013900008050F5F53E0C50ED11C003189F70E948C
:1013A0000C099C8181E0992319F0903219F48FEF98
:1013B00080931F0180911F01890F8C83CDB7DEB709
:1013C000ECE00C94202325E530E0A901481B590BE3
:1013D000CA019A01220F331F280F391F37FFC4CFCC
:1013E0002F5F3F4FC1CF0F931F93CF93DF93C6E47F
:1013F000D2E0FE01118210821282339682E0E6373B
:10140000F807C1F710E000E080914402082E000CBC
:10141000990B081719078CF180911E01082E000CFA
:10142000990B801791074CF19E014091C902609180
:10143000C8028091C7020E9408050F5F1F4F2396C4
:101440000031110509F70E940C0980911D0190914E
:101450004402980F9093440220911E01280F20937C
:101460001E01121614F49F301CF0819580931D010B
:10147000DF91CF911F910F910895198218821A82DE
:10148000DCCFB0E0A0E0E7E4FAE00C940823FC0134
:101490008281DD24DA9480FD02C0DD24D394C6E489
:1014A000D2E010E000E0198218821A8294E0E92E5E
:1014B000F12CC12C809143028C0D8131ACF18F70E5
:1014C000082E000C990B8017910791F48091C902A6
:1014D0008E9DA0018F9D500D1124559547955595D2
:1014E00047959E016091C8028091C7020E9408053D
:1014F000CD0CF1E0EF1AF108E9F60F5F1F4F2396CC
:101500000031110581F60E940C098091430291E09F
:10151000D91210C081110CC08FE080934302CDB767
:10152000DEB7E8E00C94242387FFCACF805FC8CFE2
:101530008150F3CF90E001968F709927EECFEF9214
:10154000FF921F93CF93DF93EC0186E4E82E82E0B5
:10155000F82E10E08C8197014091C9026091C80279
:10156000810F0E940805115F83E0E80EF11C103F17
:1015700089F70E940C099A818C8190FF08C08F5FC7
:101580008C83DF91CF911F91FF90EF900895815050
:10159000F7CF9091C60290FF0CC0E6E4F2E08183A1
:1015A00060834283339692E0E637F907C1F70E94E1
:1015B0000C090895A3E0B0E0E0EEFAE00C940C23EF
:1015C0008C018091450281110AC09E012F5F3F4F1F
:1015D0004FEF6FEF0E9408058A8180934502F80162
:1015E0006481613069F08091450240E0662361F0DA
:1015F00040E0623011F44091450280E060E004C0B8
:101600006091450240E080E00E94C90AF8018481AF
:1016100090E0019663E070E00E94CE2284832396DE
:10162000E4E00C942823A3E0B0E0E9E1FBE00C94B3
:101630000E239091C60290FF0AC09E012F5F3F4F7C
:101640000E9408054B8169818A810E94C90A2396FC
:10165000E2E00C942A23CF93DF93EC01E6ECF2E076
:10166000438162818C810E94130B8C818F5F8C83FC
:10167000DF91CF910895CF93DF93EC01EC81F0E0FF
:10168000E65FFC4F4491E6ECF2E0628181810E94CA
:10169000130B8C818F5F8C83DF91CF910895CF9353
:1016A000DF93C6E6D2E060E0CE010E94EA242196F4
:1016B000C11584E0D807B9F7DF91CF9108951F9342
:1016C000CF93DF93122F8430E0F46930D0F44830A8
:1016D000C0F490E1699FE001112450E0440F551FD0
:1016E000C40FD51F90E9899FC00DD11D1124632F10
:1016F000CE0186960E94EA24612FCE0187960E9431
:10170000EA24DF91CF911F910895B0E0A0E0EBE8CB
:10171000FBE00C9407239AE0C92E94E0D92ED0E088
:10172000C0E07601B12C1DC021E030E0C230D1050F
:101730003CF4F801EE0FFF1FEE0DFF1D25913491D3
:10174000402F6B2D8C2F0E945F0B0F5F1F4F0830B7
:10175000110551F780E1E80EF11CB39489E0B81649
:1017600019F010E000E0E0CF219680E9C80ED11C0E
:10177000C430D105B1F6CDB7DEB7E9E00C94232330
:10178000CF93C82F6FEF811163E282E290E00E9455
:10179000EA246FEFC11166E083E290E00E94EA2440
:1017A0006FEFC11163E184E290E00E94EA24CF91DF
:1017B000089580E00E94C00B60E085E290E00E9406
:1017C000EA240E94850B0E944F0B81E00E94C00B0F
:1017D00008950F931F93CF93DF93843030F56930D2
:1017E00020F5483010F520E1629F8001112450E07F
:1017F000440F551F040F151F30E9839F000D111D65
:101800001124C80186960E94D624C82FD0E0DC2F70
:10181000CC27C80187960E94D6249E01282BC90197
:10182000DF91CF911F910F91089590E080E0F8CF64
:10183000462F793040F4683030F4843020F4672F3C
:101840000E94E90B089590E080E00895CF92DF9226
:10185000FF920F931F93CF93DF936C0100912302AC
:1018600080911002082BC3E0D0E010E0FC2EC801EC
:101870000C2E02C0959587950A94E2F780FD0CC066
:101880002197A0F7F12C8F2DDF91CF911F910F9110
:10189000FF90DF90CF900895B6018C2F0E94180C16
:1018A0000E949C06019761F3EECFCF93DF93EC018A
:1018B0000E94260CBE010E94180C0E949C06DF911B
:1018C000CF910895FC0183819481892B29F0808137
:1018D000918189238F3F51F480E00895843FE1F79F
:1018E00017C0883EA8F0813FB9F712C0808191816E
:1018F0000E94550C92959F70963099F358F4925F20
:101900009F70923048F7803F19F040F7883E20F7EB
:1019100081E008959A5FF4CF82E290E00E94D6249D
:10192000833289F483E290E00E94D624863059F411
:1019300084E290E00E94D62491E0833109F090E0A7
:10194000892F8170089580E0FCCFB0E0A0E0EBEA41
:10195000FCE00C940023FC016280448081E08483DD
:10196000EAE0F3E07490E9E8F3E0E4910091C90261
:101970000695015810E0000F111F012F1127C6E72F
:10198000D2E026E4C22E22E0D22E36EC832E32E0C4
:10199000932EAA24AA94B12C55245A94E719EE2E1A
:1019A000F12C82E0861530F08091C7028883809107
:1019B000C8028983411016C01B821A8296014A818F
:1019C000698188810E940805259683E0C80ED11C94
:1019D0008C169D0631F70E940C09CDB7DEB7E0E109
:1019E0000C941C238B818823E9F081508B83859D87
:1019F000C00111246C8170E00E94BA22FB01FF2714
:101A0000E65FFC4F8491E82FE719E59DC0011124A2
:101A1000B7010E94BA228091C902689FB0011124C7
:101A20007A83CCCF0E948123B5010E94CE228017F9
:101A3000910724F682E0861588F40E948123B5017F
:101A40000E94CE2288830E9481232091C80226957D
:101A5000622F70E00E94CE22280F29831A82809183
:101A6000C902893C20F088EC8C838B83A7CF84311A
:101A7000D8F784E1F9CFCF92DF92EF92FF926B011A
:101A80007C010E94F904B701A60188E090E00E9461
:101A9000FC24FF90EF90DF90CF900895A3E0B0E09A
:101AA000E4E5FDE00C940323F82EB62EE42EA22EDE
:101AB0009091C60290FF29C0E92FE695AE2FB0E0C5
:101AC000A559BE4F8C91809341029E7F923009F5BB
:101AD0009E012F5F3F4F8F2D0E9408054B8169812A
:101AE0008A810E94C90AF092C702B092C802E092AD
:101AF000C902AA2051F06091C6027091C70280917C
:101B0000C8029091C9020E943B0D2396EDE00C940F
:101B10001F23823019F4E090C902E5CF863019F412
:101B2000F090C702E0CF8930D9F38931E1F6E9516D
:101B30002E2F2170722EE695F0E0EB5FFC4FE491C2
:101B40000E2F10E036E4C32E32E0D32E912C812CE0
:101B5000C40124E0969587952A95E1F7711013C08A
:101B60008F0D96014E2D6B2D0E940805800E911E43
:101B700083E0C80ED11C26E7C21622E0D20641F748
:101B80000E940C09B0CF2F2D281B822FEACFE6EC44
:101B9000F2E043812AE0421B08F440E021E0628148
:101BA00081810E944E0D0895E6ECF2E043812AE027
:101BB000420F08F44FEF21E0628181810E944E0DB7
:101BC0000895E6ECF2E062812AE0621B08F460E02E
:101BD00021E0438181810E944E0D0895E6ECF2E000
:101BE00062812AE0620F08F46FEF21E04381818176
:101BF0000E944E0D0895E6ECF2E0818121E04381E0
:101C000062818A500E944E0D0895E6ECF2E08181D7
:101C100021E043816281865F0E944E0D089580918C
:101C2000CA02882319F081508093CA026091C602CB
:101C30007091C7028091C8029091C9020E943B0D29
:101C400008958091CA02833018F48F5F8093CA028E
:101C50006091C6027091C7028091C8029091C9023A
:101C60000E943B0D08959091C60290FF2CC0917088
:101C700081112AC092609093C602662351F0609150
:101C8000C6027091C7028091C8029091C9020E9459
:101C90003B0D6091C602669570E04BE050E082E13A
:101CA00091E00E94BC24892BB1F01092420281E0A5
:101CB00080933E0220E04091C9026091C802809169
:101CC000C7020E944E0D08958B3210F09465D3CF59
:101CD000880F982BD0CF81E0809342020E94760437
:101CE00090933C0280933B02E2CF8091C60286959E
:101CF000815009F48AE261E00E94330E08958091D8
:101D0000C60286958F5F8B3208F081E061E00E9409
:101D1000330E08959091C60290FF08C096959817CB
:101D200028F0961718F40E947F0E089561E00E9433
:101D3000330E0895E6ECF2E083E0808311828FEFAA
:101D400082838383148260817181828193810E9466
:101D50003B0D089567EE7EEF90E080E00E9408253D
:101D600060E082E090E00E94EA2460E083E090E09E
:101D70000E94EA241092100260E074E184E090E096
:101D80000E94082560E086E090E00E94EA246FEF60
:101D900087E090E00E94EA2440E050E0BA0188E049
:101DA00090E00E94FC2460E08DE090E00E94EA2434
:101DB00040E050E0BA0188E190E00E94FC2460E03D
:101DC00087E190E00E94EA2440E050E0BA018CE113
:101DD00090E00E94FC2470E060E080E290E00E94CD
:101DE000082540E050E0BA0188E190E00E94FC2420
:101DF00080E00E94C00B0E94D90B40E050E0BA0185
:101E00008FE090E00E94FC2440E050E0BA0183E1C2
:101E100090E00E94FC2408959091250292FB2227D5
:101E200020F9281779F080FB92F9909325026091B0
:101E300024027091250284E090E00E94082582E04F
:101E40000E948B08089590E080E00E94E424873E81
:101E50009E4F19F40E948C0C089580E00895A9E02B
:101E6000B0E0E5E3FFE00C9405238E010F5F1F4F08
:101E700089E0F80111928A95E9F72AE5C22E21E05E
:101E8000D22EF12CE12CAA24A394B12CF60181913D
:101E90006F018F3F09F443C0F894E82FE295EF708B
:101EA000F0E021A18F70A50102C0440F551F8A9553
:101EB000E2F7CA01922F982B91A392A180958923D2
:101EC00082A3789400C0E3E6F1E0912C31E0219107
:101ED0002F3F09F4D4C0A22FA295AF70B0E0909626
:101EE0008C9190E02F7002C0959587952A95E2F726
:101EF00080FDC5C0832F982A330F51E0EB36F507DC
:101F000031F7F601319780818F3F11F00E94A005D3
:101F100080EA8A95F1F7F801EE0DFF1D9082EFEF50
:101F2000EE1AFE0AF9E0EF16F10409F0AFCF49E02E
:101F300050E0B8018AE192E00E94C9247C01892B1B
:101F400041F089E0F801AAE1B2E001900D928A9592
:101F5000E1F71092170210911602112309F498C0AC
:101F60000E9476042091140230911502AC01421BAC
:101F7000530B9A0190931502809314024F3F510521
:101F800011F008F07EC0452B41F11092160210921C
:101F900013026091180270911902AB01485F5F4F04
:101FA000605B7F4F90E030E0FA01389781918823A1
:101FB00039F0DF011197281708F466C01C92912FA1
:101FC000E417F50799F7AF01485F5F4F46175707CA
:101FD00059F73093160290931302E114F10469F457
:101FE00080911302882309F444C0111106C00E9495
:101FF00076049093150280931402609118027091F8
:10200000190200911602AAE1B2E042E352E010E0A8
:10201000EE24E394F12C94E1B92E9D91FA01819183
:10202000AF019827FB0130E020E06701022E02C0DB
:10203000CC0CDD1C0A94E2F7A92EAC2039F0A0806C
:10204000A11004C0B0828C2511E001E031962F5F11
:102050003F4F2830310549F7685F7F4FFA013197CC
:102060008083F2E0A332BF07C1F6009316021093FB
:102070001702809117022996EBE00C94212380E04F
:102080003ACF2FEF30E081CF821B8C93312F98CF46
:10209000E114F10409F4A4CFAACF80910E0290912B
:1020A0000D02892B8093A80190910F02992391F042
:1020B000892B8093A80120E08AEA91E0FC0131910C
:1020C000CF0131112F5FF1E0803B9F07B9F721115C
:1020D0000E94BA0748E050E065E072E088EA91E0CB
:1020E0000E94C924892BA9F088E0E8EAF1E0A5E084
:1020F000B2E001900D928A95E1F7E091CD02F09166
:10210000CE02309731F00280F381E02D88EA91E031
:102110000995089510920E02EAEAF1E086E0DF01E7
:102120001D928A95E9F790E080E00E94C10490E05A
:1021300080E00E949C0410920D020E944D100895B0
:10214000AAE2B0E0E6EAF0E10C940D2381EE92E021
:102150002091F100DC012D93CD01B2E0893E9B0777
:10216000B9F78091E202833009F472C0B8F481308B
:1021700009F449C0823009F4B3C08091E80083FFBC
:102180008BC28091E1029091E2029A3008F084C201
:10219000E92FF0E0ED57FA4D0C94E2228A3009F471
:1021A0008EC08B3009F471C0893039F78091E1021B
:1021B000813219F78091E5029091E602009711F0C3
:1021C0000297D9F68091E800877F8093E80080919C
:1021D000E80082FF38C09091F3008091F2000297EE
:1021E00031F48091F100813011F0863021F480913A
:1021F000F1008093D4028091E8008B778093E8000F
:102200000E945603BACF8091E102813A09F0B5CF1E
:102210008091E800877F8093E8008091E5029091AB
:10222000E602892B61F468E085ED92E070E00E949F
:1022300002048091E8008B778093E8009ECF60E0F5
:1022400090E080E0F3CF8091DF028111C0CF95CF85
:102250008091E102813A09F090CF8091E50290915E
:10226000E602892B09F089CF8091E800877F80936F
:10227000E8008091E80080FFFCCF809120018093EE
:10228000F1008091E8008E77B9CF8091E102813230
:1022900009F073CF8091E5029091E602892B09F055
:1022A0006CCF8091E800877F8093E8000E945603FE
:1022B0008091E302809320010E948A105ECF80917A
:1022C000E102813209F059CF8091E800877F809345
:1022D000E8000E9456038091E4028093D3024DCF20
:1022E0008091E102813A09F048CF8091E800877F30
:1022F0008093E8008091E80080FFFCCF8091D302BA
:10230000BECF803899F0823809F0C6C18091E502CD
:102310008F70873008F0C0C18093E9008091EB0096
:1023200085FB882780F91092E90006C08091DD02C4
:102330009091DE02911182609091E800977F9093D6
:10234000E8008093F1001092F1008091E8008E7710
:102350009FC1882309F48DC1823009F09DC180910D
:10236000E302811190C18091E5028F702FEF280F59
:10237000263008F091C18093E9002091EB0020FF06
:1023800082C1933031F48091EB0080628093EB0046
:102390007AC19091EB0090619093EB0021E030E0E6
:1023A00001C0220F8A95EAF72093EA001092EA0012
:1023B0008091EB008860EACF81116EC11091E30239
:1023C0001F778091E3008078812B8093E3008091D8
:1023D000E800877F8093E8000E9456038091E80020
:1023E00080FFFCCF8091E30080688093E30082E06F
:1023F000111183E08093DF024FC18058823008F0D2
:102400004BC12091E3023091E4022C3DE3E03E0712
:10241000A1F583E08A838AE289834FB7F894DE01CD
:10242000139620E03EE051E2E32FF0E05093570096
:10243000E49120FF03C0E295EF703F5FEF708E2FB5
:1024400090E0EA30C0F0C7968D939D932F5F2431C2
:1024500059F74FBF8091E800877F8093E8006AE2D8
:1024600070E0CE0101960E9402048091E8008B7713
:102470008093E80011C1C096E7CF8091E50290916A
:10248000E602432F55274330510509F44AC078F539
:102490004130510509F47AC08BE590E0EAE2F5E0BD
:1024A0004230510509F0F8C02091E800277F2093C1
:1024B000E8002091E7023091E8028217930708F4C0
:1024C0009C0140E02115310509F065C0411163C050
:1024D0008091E80082FDC9CF8091DF02882329F234
:1024E000853019F28091E80083FFF2CFBECF4132F0
:1024F000510509F43CC04232510509F0CDC083308A
:10250000910508F0C9C0FC01EE0FFF1FE756FE4F12
:102510000190F081E02D8A569E4FDC018C9190E075
:102520001AC0332721303105D1F02115310561F072
:102530002230310509F0B0C0E7E9F5E0E4918E2FD3
:1025400090E0E7E9F5E007C0E9ECF5E0E4918E2FD3
:1025500090E0E9ECF5E0009709F49EC0A5CFE5EB2B
:10256000F5E0E4918E2F90E0E5EBF5E0F4CF8330D9
:10257000910508F091C0880F991FFC01E156FE4FAC
:102580000190F081E02D89E090E08ECF82E190E033
:10259000E5E8F5E089CF8091DF02882309F465CF73
:1025A000853009F462CF8091E80083FD5ECF809191
:1025B000E80082FD8DCF8091E80080FF83CF90916D
:1025C000F3008091F2002115310519F08830910552
:1025D00050F041E0089709F040E08091E8008E77E4
:1025E0008093E8006FCF44914093F10031962150E1
:1025F00031090196E8CF803809F04EC08091E8009B
:10260000877F8093E8008091E0028093F1009DCE67
:10261000811142C01091E3021230F0F58091E80080
:10262000877F8093E8001093E0020E9456031123F5
:1026300011F084E005C08091E30087FDFACF81E0CE
:102640008093DF0242E061EC81E00E94750342E288
:1026500061EC84E00E94750342E261EC82E00E943A
:10266000750342E260EC83E00E9475038091DF0213
:1026700013C08091E302813079F481E0933009F056
:1026800080E08093DE021092E9008091E800877F6D
:102690008093E8000E9456038091E80083FF0AC0FF
:1026A0008091E800877F8093E8008091EB00806252
:1026B0008093EB00AA96E3E00C9429230E948A10F1
:1026C0002FEF84E39CE0215080409040E1F700C070
:1026D000000088E19AE00FB6F894A8958093600016
:1026E0000FBE90936000FFCF882321F00E94C007A7
:1026F0000E944D100895882339F090910E02982B76
:1027000090930E020E944D100895882391F19CEF42
:10271000980F913A80F4EAEAF1E020EB31E09191F0
:10272000891303C0DF0111971C922E173F07B9F7D9
:102730000E944D10089590E2980F983050F48770E1
:1027400091E001C0990F8A95EAF7892F0E94C0078E
:10275000EFCF9BE5980F933028F490E080E00E9443
:10276000C1040895885A8B3120F490E080E00E94E3
:102770009C040895CF93C82F8823B1F08CEF8C0F61
:10278000813A00F5EAEAF1E080EB91E0DF012D917A
:10279000C21761F08A179B07D1F76C2F88EA91E086
:1027A0000E9482040E944D10CF9108952191C2137E
:1027B00003C0DF0111971C928E179F07B9F70E9483
:1027C0004D10EBCF80E28C0F883068F4C77021E0A9
:1027D00030E001C0220FCA95EAF780910E02822BE9
:1027E00080930E02DFCFEBE5EC0FE33040F4F0E036
:1027F000EF5DFE4F808190E00E94C104D5CFC85AA2
:10280000CB3190F6EC2FF0E0EE0FFF1FEC5DFE4FAA
:10281000808191810E949C04C7CF1F93CF93DF9347
:10282000182FD0E0C0E0893311F4C0E5D0E0812F4B
:102830000E94BA13209739F4812F0E948513DF91EB
:10284000CF911F9108958FE99FE00197F1F700C0A4
:1028500000002197EFCF0F931F93CF93DF93C62FE5
:10286000D42F022FFC0182818823A9F06093EF020C
:102870000E9476049093EE028093ED02C77081E08F
:1028800001C0880FCA95EAF70E947B13DF91CF91B0
:102890001F910F9108958091EF0268133DC0209120
:1028A000ED023091EE024FB7F8948091E9029091D9
:1028B000EA02A091EB02B091EC024FBF821B930B96
:1028C000883C910548F510E21D0F6D17B9F080E2C4
:1028D000860F883040F4C77081E001C0880FCA9528
:1028E000EAF70E947413183048F481E09D2F977026
:1028F00001C0880F9A95EAF70E947B13802F0E94EF
:102900000D14183018F6D77081E001C0880FDA95E1
:10291000EAF70E947413BACFC77081E001C0880F34
:10292000CA95EAF7F6CFA8E0B0E0E9E9F4E10C9443
:1029300000238C01DC0113968D919C911497892BB7
:1029400039F08C9111969C9189238F3F09F04EC5E7
:102950002896E0E10C941C230E94260CF82E682F88
:1029600089819A810E94250869817A818F2D0E9430
:10297000180C7C01F8018281882309F43BC1C7014E
:1029800097578038910508F091C5FFE0FE1508F4CF
:1029900089C08FEF93E00E94D624811183C066E640
:1029A000A62E62E0B62EE11047C0FE01339686E007
:1029B000DF011D928A95E9F75AE0452E7501BFEFB8
:1029C000EB1AFB0AC5010E94D62489831A82882348
:1029D00009F468C0813009F078C06501E2E0CE0EEC
:1029E000D11CC7010E94D6248A83882309F45AC0C7
:1029F0009FEF980F933070F5F3E0AF0EB11CC60156
:102A00000E94D6248B83882309F44CC01C82DE01EB
:102A100011967D01F7012081222381F2213009F0F6
:102A200094C091818281913009F051C0F2E0EF0EA3
:102A3000F11C0E940D1452C0A11424E0B20691F1C1
:102A4000C5010E94D624811101C0EA943FEFA31A68
:102A5000B30AA9CF56018430D1F642E0E42EF12C1E
:102A600056012FEFA21AB20AC6010E94D624E1E055
:102A7000F0E0EC0FFD1FEE0DFF1D8083882391F029
:102A80008C3741F4E2E0F0E0EC0FFD1FEE0DFF1D8E
:102A90001082BDCF3FEFE31AF30A650187E0E81625
:102AA000F104F1F680910402877009F451CFD80146
:102AB00012968C91882309F44BCF8091250282FFD6
:102AC00047CF82E00E948B0843CF5701A0CF9230BE
:102AD00049F422E0E20EF11C0E94BA13EFEFEE1A65
:102AE000FE0A98CF933031F432E0E30EF11C0E94DD
:102AF0008513F4CF943021F08FEFE81AF80AEECF67
:102B000092E0E90EF11C30E020E0B7016F5F7F4FEB
:102B1000D70111964C918053990B8A30910550F052
:102B200021503109D8F2EFE9FFE03197F1F700C009
:102B30000000F6CF429EF001439EF00D11249C014F
:102B40002E0F3F1F842F7B01E0CFE22FF0E0E059F2
:102B5000FE4F5490822F86958695869590E0FC01D5
:102B6000E05AFE4F64902770712C022E02C07594BB
:102B700067940A94E2F731E063227724FC01E05B7A
:102B8000FE4F8490912C022E02C0959487940A9453
:102B9000E2F7A1E08A229924FC01E05CFE4FC49098
:102BA000D12C02C0D594C7942A95E2F7B1E0CB228C
:102BB000DD246114710419F081EE0E94BA138114AE
:102BC000910419F086EE0E94BA13852D0E940D140F
:102BD0008114910419F086EE0E948513611471042A
:102BE00019F081EE0E948513C114D10409F476CF47
:102BF0008CE21FCFF701E851FC47E730F10508F000
:102C00003CC4E357FA4D0C94E22226E241EE61EE19
:102C1000C8010E942B1446CF27E245EE65EEF8CF9F
:102C200026E241EE60EEF4CF27E245EE64EEF0CF0F
:102C300026E241EE62EEECCF27E245EE66EEE8CF0B
:102C400028E241E0EBCF809124028160809324024E
:102C500095C0809125028860809325028FC0809165
:102C600024028260F3CF809124028460EFCF8091B0
:102C700024028860EBCF809125028160EDCF8091A6
:102C800025028260E9CF809124028061DFCF8091AC
:102C900024028062DBCF809124028064D7CF0E941F
:102CA0008A10809124028068D1CF809124028C60A8
:102CB000CDCF809125028360CFCF809124028E7F7B
:102CC000C5CF80912502877FC7CF809124028D7F59
:102CD000BDCF809124028B7FB9CF80912402877F62
:102CE000B5CF809125028E7FB7CF809125028D7F51
:102CF000B3CF809124028F7EA9CF809124028F7D53
:102D0000A5CF809124028F7BA1CF0E948A10809151
:102D100024028F779BCF80912402837F97CF80916D
:102D200025028C7F99CF8091240282FB992790F90C
:102D300021E0922790FB82F990FB83F987CF809165
:102D40002502982F909591708E7F892B90FB81F9A9
:102D500083CF90912402892F8F7B96FF806476CF5A
:102D60000E948A1090912402892F97FB87F980583E
:102D70006DCF61E08EE090E00E94EA246091240231
:102D80007091250284E090E00E9408250E948A103C
:102D900089CE60E0EFCF90912402892F8F7E94FF3F
:102DA000806154CF90912402892F8E7F90FF8160A3
:102DB0004DCF90912502892F877F93FF88604CCF5C
:102DC00085E366C3F7E7EF16FCE7FF0609F021C3CA
:102DD00081E00E94A70843E062E081E00E945E0873
:102DE00061CE80910E028272F701E052F847E53120
:102DF000F10508F076C0EC56FA4D0C94E222809171
:102E0000C60280FF12C08E7F8093C6026091C60208
:102E10007091C7028091C8029091C9020E943B0D37
:102E2000109242020E940C093DCE81608093C6023E
:102E300061E086950E94330E35CE45E75EE06FE790
:102E40007EE00E94F3042ECE4FE75EE065E77EE071
:102E5000F8CF4BEF5DE065E07EE0F3CF45E05EE06C
:102E60006BEF7DE0EECF41EE5DE06EEE7DE0E9CF11
:102E70004EEE5DE061EE7DE0E4CF47EC5DE064EDB9
:102E80007DE0DFCF44ED5DE067EC7DE0DACF4FE041
:102E90005EE061E27EE0D5CF41E25EE06FE07EE0A1
:102EA000D0CF61E081E0C6CF65E082E00E948A0E6B
:102EB000F9CD68E086E0FACF6EE089E0F7CF64E113
:102EC0008FE0F4CF67E185E1F1CF61E088E1B2CF37
:102ED00062E289E1EBCF61E083E2ACCF6AE285E2B6
:102EE000E5CF27E7E2162CE7F20609F457C038E7EA
:102EF000E3163CE7F30609F455C0F8018281E0804F
:102F0000F180882309F482C0C7010E94260CD82EC4
:102F1000682FC7010E942508B7018D2D0E94180C4B
:102F20000E949C067C01882ED8011296DC90129794
:102F30001596BC90B2943FE0B32280910402877052
:102F4000F1F0AD2CDD20E1F08F2D807F803451F049
:102F500080E28E0D883098F0B11004C08F2D807EF5
:102F6000803269F08091250282FF09C082E00E94D0
:102F70008B08809104028770AA24A3948111A12C4C
:102F80009F2C92942FE09222BBE0B91508F4ADC0BB
:102F9000E92DF0E0E755FA4D0C94E22281E00E9421
:102FA0007E0819CF82E0FBCFEBE5EE16ECE7FE06DC
:102FB00059F1FCE5EF16FCE7FF06E1F02AE5E21621
:102FC0002CE7F20609F099CF81E01BC00E948A101D
:102FD0003FEF84E39CE0315080409040E1F700C037
:102FE00000000E9465046FEF7FEF90E080E00E9498
:102FF000082529C28091250282FB882780F991E06B
:1030000089270E940C0F79CF80E0FBCFC7010E9477
:10301000F107D82E81CFEF2DEF70CE2E8F2D807F30
:1030200019F0C29490EFC922DD20B9F0CC2069F0EC
:1030300080E28E0D883010F0811009C080910E0260
:10304000C82AC0920E020E944D108E2D4CC0809155
:103050000D02C82AC0920D02F6CF8E2D0E94851354
:10306000CC2009F442C080E28E0D883010F081102F
:1030700004C08C2D0E94C00706C0C09480910D0230
:10308000C822C0920D020E944D102FC0FF2DFF706C
:10309000CF2E8F2D807F803219F0C29480EFC8220E
:1030A000882089F021E0821609F46CC0DD2009F443
:1030B00076C0BB2009F46CC0F801858180FFC5CFC4
:1030C0008F70858365C02091250222FD34C0DD20EC
:1030D00061F1CC2039F080910E02C82AC0920E0214
:1030E0000E944D1080E00E94BA13A92DA850BB0B7E
:1030F000149710F40E94E604AA2009F429CC8091C8
:10310000040280FD25CCF801128285958595859570
:103110000E94A708C8010E9493148091040285951B
:10312000859585950E947E0813CC80E00E948513CA
:10313000CC20D9F29ECFDD2099F090910F028C2DFA
:10314000892BB11003C00E947B13CFCF31E0B312A3
:10315000FACF22FFCACF891741F280930F02C5CF61
:10316000B11006C00E94BA078C2D0E947413BDCF07
:1031700081E0B81609F4B9CF8C2D0E9474130E9417
:10318000BA07B3CFDD2031F095E09B1508F4ADCF41
:103190008C2DD9CFA4E0AB1508F4A7CFE5CFBB2089
:1031A00019F3F9E38F1209C02FEF37EE83E02150B6
:1031B00030408040E1F700C000008E2D0E94851352
:1031C00094CF8F2D86958695837061F0813009F0BC
:1031D0008CCFC7019370D11002C080E090E00E94B4
:1031E0009C0483CFC7019370D11002C080E090E0AF
:1031F0000E94C1047ACF8F2D837091F5D11075CFC5
:103200004E2D429546954770440F440F8E2D8F707A
:10321000042E01C0880F0A94EAF72E2D2071E4FED7
:1032200007C02FE030E001C0220F4A95EAF7209551
:103230003F2D369536953370323069F050F4409119
:103240001002313029F0822B84230E94B3084DCF25
:10325000842B822BFACF282B809110028227F5CF66
:103260008695DD2011F08F2D8170882309F43DCFE4
:103270004E2D429546954770440F440F8E2D8F700A
:10328000042E01C0880F0A94EAF72E2D2071E4FE67
:1032900007C02FE030E001C0220F4A95EAF72095E1
:1032A0003F2D369536953370323069F050F44091A9
:1032B0002302313029F0822B84230E945B0815CF32
:1032C000842B822BFACF282B809123028227F5CFE3
:1032D0009F2D9F70F92EDD2029F0892F0E94A708CD
:1032E0008E2D31CF8E2D0E9474138F2D0E947E085B
:1032F000FCCE8E2DA2EF8A16B1F1A81570F0B0EFBA
:103300008B16D1F0E1EF8E1691F0DD2009F45EC04E
:10331000B1109BCE8F2D8F712AC0F3EF8F1651F114
:1033200024EF8212F2CF8091250282FD2FC08F2DD3
:103330008F71DD20D9F21BC0DD2081F034E03B1518
:1033400008F4D3CE2F2D2F7181E090E001C0880FBB
:103350002A95EAF7909123028927AFCF85E08B1554
:1033600008F4C3CEEFCF8F2D8F71D110BFCF0E9445
:10337000A708BBCE80E0DD2009F49FCF9F2D9F7171
:1033800081E001C0880F9A95EAF797CFDD2099F088
:103390009F2D9F71F92E892F0E94A70880912502E9
:1033A00082FF07C0A8E0FA9EC001112483608093C9
:1033B00004028F2DDCCF81E00E948B08B1E0BB15A9
:1033C00008F093CE82E00E948B088FCEBB2059F08C
:1033D000893309F0F2CEEFEFF7EE23E0E150F04051
:1033E0002040E1F7E8CE8F2D8F7180CF85E0F80186
:1033F000DE01119601900D928A95E1F7D80112969F
:103400002C9189819A812111A7CA0E94F107F82E77
:10341000ABCA82E0B8E7EB16BCE7FB0609F4D9CCEF
:1034200083E0E8168CE7F80609F4DDCD08F0BCCDA2
:10343000E114ACE7FA0609F4C9CDB1E0EB16BCE73C
:10344000FB0609F05ACD0E945E13E6E1EE16ECE7AA
:10345000FE0609F0B7CC80910E028A7A91E009F459
:1034600090E09093B00169E2811165E388EA91E010
:103470000E9482040E944D1015CBF6E1EF16FCE786
:10348000FF0609F0AECC8091B001811199CC89E2A0
:10349000EAEAF1E020EB31E09191891303C0DF010A
:1034A00011971C922E173F07B9F7E4CFF701E851A7
:1034B000FC47E730F10508F4A4CB1092EF02C701F6
:1034C0009057839708F0C1CF84E090E00E94E424F5
:1034D0009093250280932402F701E150F047E232F5
:1034E000F10508F0B0CBEB54FA4D0C94E2221F9397
:1034F000CF93DF938091D101807F09F04BC0809101
:10350000CE01882309F446C080910302C091D20104
:103510004091CC015091CD016091CF017091D001CB
:10352000D42FD52316E0C817A9F190E061157105D5
:10353000A9F1DF3F99F1189FF001199FF00D1124B7
:10354000DF01AD52BE4F11962C911197251326C065
:103550002C91241323C012962C91129721111EC076
:1035600013962D913C91261B370B283C3105B0F466
:103570008091D1018F7080618093D101E852FE4F1C
:1035800080818F70806180838CEC91E00E94931425
:103590000E94E707DF91CF911F91089501968770F0
:1035A000C2CFA1E1B0E0E7EDFAE10C9404238C0175
:1035B00085E0F801DE011D9601900D928A95E1F7F4
:1035C000F801E2808CEC882E81E0982E4091CF01AA
:1035D0005091D0014115510509F430C19091CC01B1
:1035E0002091CD01892F82238F3F09F427C1D080FC
:1035F000C180A380B480F090CE01B501641B750B2F
:10360000FF2009F4E7C08091D101382F307F683C5A
:10361000710508F0ABC0311178C0FE2C2C1114C01C
:103620009D1112C0E11010C08F7080618093D10194
:10363000C4010E9493148091D101F80185838F2DDC
:103640006196ECE00C942023A114B104C9F18D2DF6
:103650008C218F3FA9F181E08E2580FF05C04E2D82
:103660006C2D8D2D0E94C707A114B10459F18D2D29
:103670008C218F3F39F181E08E25F82FF170BF2E1C
:1036800080FF39C04E2D6C2D8D2D0E94C707A82EAE
:10369000811131C0DD86CE868D859E850E94550CB8
:1036A000292F22952F70243078F49F702230A8F0B3
:1036B0009923B9F0F8019581907F99F4FA2CBFCF46
:1036C00080E0CBCF80E0D9CF2A5F2F70223068F026
:1036D000C8010E949314AB2CF1CF992311F08823D9
:1036E00069F3805E883050F3F3CF803F38F3815F19
:1036F000833070F7E3CFEE2009F4A1CF8091D101A0
:1037000081608093D101F12C9ACF2C1105C09D11BD
:1037100003C0EE2009F477C0C8010E94620C882320
:1037200009F1EE20F9F08091D101803270F0209102
:10373000CC013091CD0138872F831986BB86AA86AC
:103740008C87CE0107960E94931486E0F801ACECBA
:10375000B1E001900D928A95E1F70E94771AFF245B
:10376000F3946DCFC8010E949314F9CF31110AC0B0
:103770008CEC91E00E94931486E0F40111928A95FA
:10378000E9F7C1CF2C110EC09D110CC0E1100AC089
:103790008583C8010E94931486E0F40111928A95F2
:1037A000E9F74DCFC8010E94620C8823D9F2EE20C0
:1037B000C9F28091D101803240F22091CC01309148
:1037C000CD013A8329831B82BD82AC828E83CE01D8
:1037D0000196B9CF683C7105F8F6FE2CEE2011F287
:1037E0002C111EC09D111CC08091D10180FD0FC005
:1037F000982F907F61F08583903F31F0982F907FD4
:10380000905F8F70892B8583C8010E94931486E096
:10381000F801ACECB1E001900D928A95E1F70FCF81
:10382000C8010E94620C811190CF8091D10181600A
:103830008093D101C8010E94931401CFEE2009F4B6
:1038400091CFC8010E94620CF82E882309F48ACF18
:1038500086E0F801ACECB1E001900D928A95E1F7B9
:103860008091CC019091CD010E94550C0E94771A55
:10387000E6CEA7E1B0E0EFE3FCE10C940D234B8B27
:103880005C8B6D8B7E8B8F8B611110920D021A8A6F
:10389000198A85E0FE017396DE011D9601900D9256
:1038A0008A95E1F786E0FE013D96DE0117960190CC
:1038B0000D928A95E1F7CE0107960E94D11A8823CE
:1038C00059F016E0809103029091D201891343C010
:1038D0006796E3E00C94292386E0FE013796DE012B
:1038E000119601900D928A95E1F78A859B85892B27
:1038F00041F38F81988589238F3F19F32091D2015D
:1039000030E0C9010196877099274091030248175A
:10391000190671F40E948A101092D20110920302CB
:1039200086E0ECECF1E0DF011D928A95E9F7C9CF62
:1039300096E0929FD001939FB00D1124AD52BE4FDF
:10394000FE01319601900D929A95E1F78093D20194
:103950000E94E707B6CF819FC00111248D529E4F70
:103960000E94D11A882309F4B3CF8091030290E01A
:1039700001968770992780930302A4CFA5E0B0E059
:10398000E4ECFCE10C940C230E9476048C01809101
:1039900011029091120280179107A1F08FEF898395
:1039A0008A831B820E9476048160782F9D838C839A
:1039B00049815A816B818D810E94391C10931202BA
:1039C000009311022596E4E00C9428231F920F9295
:1039D0000FB60F9211242F933F934F935F936F93E2
:1039E0007F938F939F93AF93BF93CF93DF93EF9387
:1039F000FF93D091E900DF708091EC00C82FC17077
:103A000080FDC0E81092E9008091F000877F8093EC
:103A1000F00078940E94A0101092E9008091F000CC
:103A200088608093F000CD2BCF70C093E900FF91A8
:103A3000EF91DF91CF91BF91AF919F918F917F9146
:103A40006F915F914F913F912F910F900FBE0F900B
:103A50001F9018951F920F920FB60F9211242F935B
:103A60003F934F935F936F937F938F939F93AF9306
:103A7000BF93EF93FF938091E10082FF09C0809193
:103A8000E20082FF05C08091E1008B7F8093E1001E
:103A90008091DA0080FF24C08091D80080FF20C090
:103AA0008091DA008E7F8093DA008091D90080FFC8
:103AB0009DC080E189BD82E189BD09B400FEFDCFD2
:103AC00081E08093DF028091D202811109C00E94BF
:103AD00006030E94A7038091E20084608093E200C5
:103AE0008091E10080FF17C08091E20080FF13C049
:103AF0008091E2008E7F8093E2008091E2008061FD
:103B00008093E2008091D80080628093D80019BC35
:103B100085E08093DF028091E10084FF2BC08091DB
:103B2000E20084FF27C080E189BD82E189BD89B5BB
:103B3000982F917080FFFBCF8091D8008F7D80936C
:103B4000D8008091E1008F7E8093E1008091E200B7
:103B50008F7E8093E2008091E20081608093E2009A
:103B60008091E002882309F447C084E08093DF025B
:103B70008091DF028091E10083FF27C08091E20005
:103B800083FF23C08091E100877F8093E10082E082
:103B90008093DF021092E0028091E1008E7F80939B
:103BA000E1008091E2008E7F8093E2008091E2004C
:103BB00080618093E20042E060E080E00E94750353
:103BC0008091F00088608093F000FF91EF91BF91A9
:103BD000AF919F918F917F916F915F914F913F91A5
:103BE0002F910F900FBE0F901F90189519BC109237
:103BF000DF021092D20274CF8091E30087FD93E040
:103C00009093DF02B5CF78941F921FB61F921124B4
:103C10008F939F93AF93BF938091E9029091EA02B3
:103C2000A091EB02B091EC020196A11DB11D809311
:103C3000E9029093EA02A093EB02B093EC02BF91E9
:103C4000AF919F918F911F901FBE1F9018951F924B
:103C50001FB61F9211248F939F93AF93BF938091B0
:103C6000D102811113C08091E9029091EA02A091E2
:103C7000EB02B091EC024196A11DB11D8093E902C7
:103C80009093EA02A093EB02B093EC02BF91AF9144
:103C90009F918F911F901FBE1F901895CDB7DEB7D3
:103CA000A5970FB6F894DEBF0FBECDBF85B780686D
:103CB00085BF85B7806885BF84B7877F84BF0FB60F
:103CC000F894A895809160008861809360001092BC
:103CD00060000FBE80E890E00FB6F894809361001A
:103CE000909361000FBE8EE995E09093A7018093B9
:103CF000A601809A88980E9406030E94A7038091DB
:103D0000E20084608093E20078948091DF0288234F
:103D1000A1F01091E9001F709091EC00892F817043
:103D200090FD80E8182B1092E9008091E80083FD57
:103D30000E94A0101F701093E90082E084BD93E000
:103D400095BD9AEF97BD80936E000E948C0C8111F7
:103D500002C00E94D90B0AE511E0D8018D918D01B6
:103D60008F3F11F00E94A005B1E003361B07A9F7B1
:103D700003E611E0F80181918F018F3F11F00E945D
:103D8000A005F1E00B361F07A9F789E0E2E3F2E0B6
:103D9000DF01282F1D922A95E9F7EAE1F2E0DF0121
:103DA0001D928A95E9F788E490E00E949123AC0186
:103DB000909319028093180230E020E0FA01E20F9C
:103DC000F31F98E011929150E9F7285F3F4F283494
:103DD0003105A1F70E94230F811102C00E94AA0E93
:103DE00082E090E00E94D6248093270284E090E055
:103DF0000E94E42490932502809324020E942F0FB6
:103E0000BFEFE3EFF1E0B150E040F040E1F700C078
:103E100000000E942F0F8091320280FF08C06FEFD8
:103E20007FEF90E080E00E9408250E94650483E017
:103E300090E00E94D6240E94B3088091260281114E
:103E400033C00E94230F811104C00E94AA0E0E9459
:103E50009A0E88E090E00E94DE246093C602709380
:103E6000C7028093C8029093C9026E7F71F40E94CA
:103E70009A0E88E090E00E94DE246093C602709360
:103E8000C7028093C8029093C9020E94F90410925D
:103E900042028091C60280FF04C060E086950E94C5
:103EA000330E81E0809326028AE091E09093CE0267
:103EB0008093CD02B8E1EB2EF12C10E4612E01E3EA
:103EC000C02E02E0D02E772473948091DF0200E1AF
:103ED00012E1853009F482C00E942F0F08E212E03F
:103EE000A2E3AA2EA2E0BA2ED501F80191918D91FC
:103EF000CE16DF0609F47CC09817C1F3912CD501CA
:103F00008D905D01F80131908F01381419F138243A
:103F1000512C44244394832D8421A1F059A29AA2C8
:103F200091E0882D842109F490E09BA30E947604FF
:103F30008160782F9DA38CA349A15AA16BA18DA16B
:103F40000E94391C5394440CF8E05F12E4CFF8014E
:103F500031978082939429E09212D1CF8FB7F89451
:103F60004091E9025091EA026091EB027091EC02FB
:103F70008FBF42C08091DF02843009F11092D102DC
:103F80000FB6F894A895E09260000FBE60926000B2
:103F900083B7817F846083BF83B7816083BF789458
:103FA000889583B78E7F83BF0FB6F894A8958091CC
:103FB0006000886180936000109260000FBE809165
:103FC000DE02882359F00E942F0FE2E3F2E0819194
:103FD0008111A5C222E0EB33F207C9F78091DF021D
:103FE000853009F4C7CF0E948A100E94E60474CF7E
:103FF000981384CF0E94BE1C809142028823D1F185
:1040000080914102E091C602E695E81BE0933D02F3
:10401000823009F06CC0F0E0EF5FFD4FE4910E2FAD
:1040200010E0FBE3AF2EFBE0BF2E80913E02882321
:1040300061F010923E020E94760490933C028093BD
:104040003B021092400210923F020E947604E091DF
:104050003B02F0913C028E1B9F0B8F3F9F4750F419
:10406000E00FF11FF0933C02E0933B028BE392E000
:10407000F50109950E94E60490913102891769F0D3
:10408000809331028FB7F8944091E9025091EA028F
:104090006091EB027091EC028FBF8091DF0284305F
:1040A00009F013CF83E08093E9008091E80082FF5C
:1040B0000CCF8091E80090E085FF06C00E942503A8
:1040C000882309F480C091E08091E8008B77809389
:1040D000E800992309F4F9CE8981EFEFE80FE33185
:1040E00008F098C0F0E0E952FA4D0C94E2228630D4
:1040F00059F4F0E0E250FE4FE4910E2F10E0EBE2B5
:10410000AE2EEBE0BE2E91CF893061F4E695F0E063
:10411000E550FE4FE4910E2F10E07FE9A72E7AE0E4
:10412000B72E83CF8F3061F4E695F0E0E850FE4F74
:10413000E4910E2F10E061E4A62E6AE0B62E75CF52
:10414000853159F4F0E0EB50FE4FE4910E2F10E072
:1041500053EFA52E59E0B52E68CF08E210E028E70E
:10416000A22E29E0B22E883109F45FCF833249F4C0
:10417000E3EFF1E0059114914AEDA42E4AE0B42E4C
:1041800054CF04EF11E091E4A92E99E0B92E8432C6
:1041900009F44BCF853281F48E2F63E00E94AE226A
:1041A000E92FF0E0E051FE4FE4910E2F10E035EAE8
:1041B000A32E3CE0B32E39CF00ED17E080E6A82E09
:1041C00084E0B82E32CF00E210E0CE0101965C010F
:1041D0008091E80085FD0AC08091E8008B7780938C
:1041E000E8000E942503882399F36DCF8091F100A8
:1041F000D5018D935D010150110951F764CF1A82E9
:104200008CE08B8324C08A81823009F49EC128F41B
:10421000813061F08FEF89831AC0833009F18430D7
:10422000C9F71B821C821D821E8211C02FB7F89411
:104230006091E9027091EA028091EB029091EC02A8
:104240002FBF0E94E8226B837C838D839E8340E294
:1042500050E0BE016F5F7F4F82E00E94B60835CE0E
:104260002B81822F90E0FE013496245E89309105E7
:1042700070F7DC01AE5CBD4F3C9131930196281381
:10428000F5CFE5CF8A81823081F0853019F68091B3
:10429000C60280FF15C08091C6028E7F8093C60241
:1042A000109242020E940C09D2CF6B817C818D81D9
:1042B0009E810E94E82285E290E00E94EA24C7CF16
:1042C00081608093C60260E086950E94330EBFCF66
:1042D0004C816B818A810E94E90B98278927982756
:1042E0009E838D83B4CF2D813E81322723273227B1
:1042F0004C816B818A810E945F0BA9CF0E94850B44
:10430000A6CF9A81923009F085CF8830D9F18930D3
:1043100009F463C08B81823009F1A8F4813009F07F
:1043200096CF8C81BFEF8B9FC00111246FEF70E09F
:104330000E94BA22462F20E06091C8028091C702F5
:104340000E944E0D84CF8330C9F0843009F07FCFB6
:1043500020E04091C9026D818C81F2CF8C8188234D
:1043600009F499CF8091C60281608093C60260E013
:1043700086950E94330E60E08C81A7CF8C8180935C
:10438000CA0265CF8B818230E1F078F4813009F088
:104390005ECF8091C902EFEF8E9FC00111246FEFB5
:1043A00070E00E94BA226C8352CF833099F084303F
:1043B00009F04DCF8091C7028C838091C8028D8314
:1043C00046CF8091C60280FF03C086958C833FCF85
:1043D00080E0FCCF8091CA02F9CF6091C602709153
:1043E000C7028091C8029091C9020E943B0D2FCF55
:1043F00080E18A832CCF7A828AE903CF8A809B80EE
:104400009824892498248E010F5F1F4FAC80A00E42
:10441000B12EB11CC4018A599D4F0A151B0509F420
:1044200016CFFAE98F16F1E09F0658F40E94D624C1
:10443000D80114968C93FFEF8F1A9F0A0F5F1F4FBE
:10444000E9CFF8011482F7CF0A811B8110270127D9
:104450001027CE0101964C01AC80A00EB12EB11CEC
:10446000C8018A599D4FA016B10609F4F0CE0A3949
:10447000A1E01A0720F4F40164810E94EA24FFEF0E
:104480008F1A9F0A0F5F1F4FEBCF0E944F0BDFCE9B
:1044900084E0AFCFAA80BB80BA24AB24BA248E01BB
:1044A0000F5F1F4F8C80800E912E911CC501869648
:1044B0000815190509F4CBCE20E4A21622E0B206B5
:1044C00058F40E94D624D80114968C93FFEFAF1AAB
:1044D000BF0A0F5F1F4FEACFF8011482F7CF0A819E
:1044E0001B81102701271027CE0101964C01AC80BB
:1044F000A00EB12EB11CC80186960A151B0509F441
:10450000A6CE0034A2E01A0720F4F40164810E94D0
:10451000EA24FFEF8F1A9F0A0F5F1F4FECCF09BDF0
:1045200019BD09B400FEFDCF8091D8008F7D809326
:10453000D8008091E00082608093E0008091E000EC
:1045400081FDFCCF0E948A1049CD85E290E00E9457
:10455000D6241B821C821D828E8379CE991B79E022
:1045600004C0991F961708F0961B881F7A95C9F703
:1045700080950895AA1BBB1B51E107C0AA1FBB1F52
:10458000A617B70710F0A61BB70B881F991F5A95DF
:10459000A9F780959095BC01CD01089597FB072E52
:1045A00016F4009407D077FD09D00E94BA2207FCC8
:1045B00005D03EF4909581959F4F08957095619533
:1045C0007F4F0895EE0FFF1F0590F491E02D0994A1
:1045D00069279627692778278727782708950E94D3
:1045E0007225332312F48A1B9B0B0C94F9220E9430
:1045F0007225B7FF0895821B930B08952F923F9267
:104600004F925F926F927F928F929F92AF92BF92E2
:10461000CF92DF92EF92FF920F931F93CF93DF938E
:10462000CDB7DEB7CA1BDB0B0FB6F894DEBF0FBEEB
:10463000CDBF09942A88398848885F846E847D8438
:104640008C849B84AA84B984C884DF80EE80FD803A
:104650000C811B81AA81B981CE0FD11D0FB6F894B0
:10466000DEBF0FBECDBFED0108958F929F92AF9236
:10467000BF92CF92DF92EF92FF92CF93DF93EC0144
:10468000688179818A819B81611571058105910518
:1046900021F464E279ED8BE597E02DE133EF41E021
:1046A00050E00E941E2549015A019B01AC01A7EA76
:1046B000B1E40E943D256B017C01ACEEB4EFA50195
:1046C00094010E944B25DC01CB018C0D9D1DAE1D7C
:1046D000BF1DB7FF03C00197A109B0488883998324
:1046E000AA83BB839F77DF91CF91FF90EF90DF90FC
:1046F000CF90BF90AF909F908F9008950E943523E8
:10470000089580E091E00E9435230895B0E0A0E094
:104710008093000190930101A0930201B0930301E3
:1047200008950F931F93CF93DF938230910510F478
:1047300082E090E0E091F202F091F30230E020E0BC
:10474000B0E0A0E0309799F42115310509F447C095
:10475000281B390B24303105C0F58A819B816115F6
:10476000710571F1FB0193838283FE0111C04081C9
:1047700051810281138148175907F8F048175907EA
:1047800099F4109761F012960C93129713961C935C
:104790003296CF01DF91CF911F910F910895009331
:1047A000F2021093F302F4CF2115310519F04217EC
:1047B000530718F49A01BD01EF01DF01F801C2CFE0
:1047C0009093F3028093F202D0CFFE01E20FF31F29
:1047D000819391932250310939832883DACF209134
:1047E000F0023091F102232B41F420910601309127
:1047F00007013093F1022093F002209104013091DF
:1048000005012115310541F42DB73EB7409108014E
:1048100050910901241B350B4091F0025091F10297
:104820004217530708F0B5CF241B350B281739075B
:1048300008F4AFCFBC016E5F7F4F2617370708F42F
:10484000A8CF640F751F7093F1026093F002FA0114
:10485000819391939ECFCF93DF930097E9F0FC0172
:10486000329713821282C091F202D091F302DE01DC
:1048700030E020E02097A1F420813181820F931F46
:104880002091F0023091F1022817390709F067C032
:10489000F093F102E093F002DF91CF910895DA01F5
:1048A000AE17BF0708F040C012964D915C91139768
:1048B0009D014115510599F7D9011396FC93EE938B
:1048C00012974D915D91A40FB51FEA17FB0779F47C
:1048D000808191810296840F951FD90111969C9336
:1048E0008E938281938113969C938E931297B0E05E
:1048F000A0E08A819B810097B9F5FE018191919199
:10490000E80FF91F8091F0029091F1028E179F0736
:1049100019F6109761F51092F3021092F202D093FB
:10492000F102C093F002B8CFB383A28340815181DA
:10493000840F951FA817B90771F44E5F5F4F8D91D3
:104940009C911197480F591F5183408312968D9166
:104950009C91938382832115310509F0ADCFF093AB
:10496000F302E093F20298CFDE01EC01C2CF13967E
:104970001C921E921297D3CFFC014150504030F050
:1049800001900616D1F73197CF010895882799270E
:104990000895FB01DC0104C08D910190801921F480
:1049A00041505040C8F7881B990B0895F999FECFE4
:1049B00092BD81BDF89A992780B50895A6E1B0E02F
:1049C00044E050E00C941025A8E1B0E042E050E053
:1049D0000C941025262FF999FECF92BD81BDF89A2F
:1049E000019700B4021639F01FBA20BD0FB6F89433
:1049F000FA9AF99A0FBE08950396272F0E94EB2486
:104A00000E94EA24252F0E94EB24242F0C94EB24EF
:104A10000196272F0E94EB240C94EA24DC01CB01A1
:104A2000FC01F999FECF06C0F2BDE1BDF89A3196BE
:104A300000B40D9241505040B8F70895052E97FBF1
:104A40001EF400940E94352557FD07D00E94502582
:104A500007FC03D04EF40C943525509540953095C5
:104A600021953F4F4F4F5F4F0895909580957095DA
:104A700061957F4F8F4F9F4F08950E947225A59F8C
:104A8000900DB49F900DA49F800D911D1124089549
:104A9000B7FF0C943D250E943D25821B930B089582
:104AA000A1E21A2EAA1BBB1BFD010DC0AA1FBB1F32
:104AB000EE1FFF1FA217B307E407F50720F0A21BA4
:104AC000B30BE40BF50B661F771F881F991F1A9411
:104AD00069F760957095809590959B01AC01BD013B
:104AE000CF010895A29FB001B39FC001A39F700D95
:104AF000811D1124911DB29F700D811D1124911DE6
:104B00000895F894FFCF8111A9114C13A9114C13EA
:104B1000DC11FD114C13FB120813101614160516A8
:104B20000C1618161C162016FF161D172417291709
:104B30002E17331738173D17421747174C175117C1
:104B4000541759175C175F176217651768176B17AB
:104B50006E170B180B1846184618E11875187518BB
:104B60007518FB186819791979195D16D21665162A
:104B70002F163316691637166D1679164316CB168F
:104B800047167D164B168116A9164F168516B016B8
:104B900055168B1693163B1671163F167516591639
:104BA0008F169F16B916C91629166116D916FF2039
:104BB00003214221682173217E21812181218121CC
:104BC0000A210A21F821FB21FE2124224522482224
:044BD0004A226F22E4
:104BD400010000000000F40220006204F8086104EF
:104BE400F10801191A1B1C1D1E1F2021220102019C
:104BF40001818283E200E900EA00B500B600B70053
:104C0400CD008301CC008A01920194012102230288
:104C140024022502260227022A02B300B4006F00F0
:104C240070009F01CB019F02A00291F43435F6F786
:104C3400F533329392946697C6313600010202022C
:104C4400020606060909090909090F0F0F0F0F0FBC
:104C540015151518191919191919191919192324B8
:104C64002525252525254022320001DE00AC003C07
:064C740005550575050061
:00000001FF
